:100000000C942A000C941F050C94E4050C944700F2
:100010000C9447000C9447000C9447000C94470044
:100020000C9447000C9447000C9447000C94470034
:100030000C9447000C9447000C9447000C94470024
:100040000C9447000C9447000C9447000C94470014
:100050000C94470011241FBECFE5D4E0DEBFCDBF16
:1000600011E0A0E6B0E0E4EFFDE002C005900D92E3
:10007000A03AB107D9F721E0A0EAB1E001C01D9292
:10008000A13AB207E1F70E9420060C94F8060C94FE
:100090000000442379F1413009F05FC0813079F0EC
:1000A00028F08230A9F08330E1F008952AB381E08E
:1000B00090E001C0880F6A95EAF7822B2CC027B325
:1000C00081E090E001C0880F6A95EAF7822B2EC08C
:1000D00024B381E090E001C0880F6A95EAF7822B93
:1000E00030C021B381E090E001C0880F6A95EAF743
:1000F000822B32C0813089F028F08230C9F0833001
:1001000011F108952AB381E090E001C0880F6A954B
:10011000EAF7809582238ABB089527B381E090E0B7
:1001200001C0880F6A95EAF78095822387BB0895FE
:1001300024B381E090E001C0880F6A95EAF78095CA
:10014000822384BB089521B381E090E001C0880F31
:100150006A95EAF78095822381BB0895442379F15B
:10016000413009F05FC0813079F028F08230A9F089
:100170008330E1F008952BB381E090E001C0880F57
:100180006A95EAF7822B2CC028B381E090E001C089
:10019000880F6A95EAF7822B2EC025B381E090E0A4
:1001A00001C0880F6A95EAF7822B30C022B381E044
:1001B00090E001C0880F6A95EAF7822B32C0813047
:1001C00089F028F08230C9F0833011F108952BB303
:1001D00081E090E001C0880F6A95EAF7809582235C
:1001E0008BBB089528B381E090E001C0880F6A9529
:1001F000EAF78095822388BB089525B381E090E0DB
:1002000001C0880F6A95EAF78095822385BB08951F
:1002100022B381E090E001C0880F6A95EAF78095EB
:10022000822382BB0895FA01813041F028F08230A8
:1002300039F0833039F0089589B305C086B303C01F
:1002400083B301C080B390E002C0959587956A950D
:10025000E2F7817080830895813081F028F0823048
:10026000B9F08330F9F008952BB381E090E001C03C
:10027000880F6A95EAF7822B8BBB089528B381E03B
:1002800090E001C0880F6A95EAF7822B88BB089539
:1002900025B381E090E001C0880F6A95EAF7822BD0
:1002A00085BB089522B381E090E001C0880F6A9574
:1002B000EAF7822B82BB0895E199FECF91E0980F77
:1002C0008EBB6F3F710509F060F46DBBE29AE19A55
:1002D000EFE1FEE43197F1F700C000009EBB1DBACC
:1002E0000EC08FEF8DBBE29AE19AEFE1FEE4319709
:1002F000F1F700C000009EBB6F5F71096DBBE29A11
:10030000E19A8FE19EE40197F1F700C000000895A3
:10031000E199FECF8EBBE09A9DB3992369F02DB38E
:1003200030E0E199FECF8F5F8EBBE09A8DB3A901DB
:10033000480F511DCA01089580E090E0089541E002
:1003400060E081E00E94490041E061E081E00E94BC
:10035000490041E062E081E00E94490040E064E041
:1003600081E00E94490040E065E081E00E94490090
:1003700040E066E081E00E94490040E067E081E003
:100380000E94490064E081E00E942C0165E081E068
:100390000E942C0166E081E00E942C0167E081E070
:1003A0000E942C0141E060E081E00E94AE0041E04B
:1003B00061E081E00E94AE0041E062E081E00C94E7
:1003C000AE00BF92CF92DF92EF92FF920F931F93F6
:1003D000CF93DF931F92CDB7DEB7198286EAE82E5E
:1003E00080E0F82EB12C10E040E0612F81E00E9407
:1003F000AE00670104E0AE014F5F5F4F602F81E008
:100400000E9413018981811113C0F601B080898196
:10041000811108C0AE014F5F5F4F602F81E00E94E5
:100420001301F5CF8FE19EE40197F1F700C00000C2
:100430000F5F93E0C90ED11C0830E9F641E0612F4F
:1004400081E00E94AE001F5FEFEFEE1AFE0A13304C
:1004500059F68B2D0F90DF91CF911F910F91FF9047
:10046000EF90DF90CF90BF900895CF93C82F40E0DA
:1004700061E080E00E94AE0040E062E080E00E9427
:10048000AE0040E063E080E00E94AE0085B39C2FA8
:10049000907F8F70892B85BB41E063E080E00E94F4
:1004A000AE008FE99FE00197F1F700C0000040E047
:1004B00063E080E00E94AE0025B330E1C39FC0013D
:1004C0001124922F9F70892B85BB41E063E080E06F
:1004D0000E94AE008FE99FE00197F1F700C0000095
:1004E00040E063E080E00E94AE008FE19EE401976F
:1004F000F1F700C00000CF91089541E061E080E095
:100500000E94490041E062E080E00E94490041E031
:1005100063E080E00E94490041E064E082E00E94E4
:10052000490041E065E082E00E94490041E066E068
:1005300082E00E94490041E067E082E00E944900B9
:100540002FEF81EE94E0215080409040E1F700C011
:10055000000083E30E94350282E30E94350288E2B4
:100560000E9435028CE00E94350281E00E94350233
:1005700086E00E94350282E00C943502CF93C82FAA
:1005800041E061E080E00E94AE0040E062E080E097
:100590000E94AE0040E063E080E00E94AE008C2F3D
:1005A000807F85BB41E063E080E00E94AE008FE980
:1005B0009FE00197F1F700C0000040E063E080E0B9
:1005C0000E94AE00C295C07FC5BB41E063E080E001
:1005D0000E94AE008FE99FE00197F1F700C0000094
:1005E00040E063E080E00E94AE008FE19EE401976E
:1005F000F1F700C00000CF9108950F931F93CF93A0
:100600008C01C0E0F801EC0FF11D8081882321F0FE
:100610000E94BE02CF5FF6CFCF911F910F91089538
:10062000CF93DF9300D0CDB7DEB790E8998390ECFD
:100630009A83FE01E80FF11D8181860F0F900F90C4
:10064000DF91CF910C94350281E00C94350240E0AB
:1006500065E083E00C94AE001F93CF93DF930E947C
:100660007D020E949F0141E061E083E00E94490019
:1006700041E065E083E00E94490040E061E083E002
:100680000E94AE0040E065E083E00E94AE0040E0E2
:1006900062E083E00E94490041E062E083E00E9462
:1006A000AE0040E063E083E00E94490041E063E087
:1006B00083E00E94AE008BE085BF80EC8BBF8FB7DC
:1006C00080688FBFC0E0D0E011E0CE010E948801B9
:1006D0008F3F910509F010E02196C11521E0D20766
:1006E000A1F7113029F582EB90E00E94FD02C0E6EF
:1006F000D0E06A857B85CB018456904C880F991F8A
:10070000880F991F0E945C016C857D858A859B8579
:10071000880F991F880F991F8E5891400E945C0185
:100720002E9680E0C63AD80721F70E94240304C021
:1007300082EC90E00E94FD029FEF29E688E1915053
:1007400020408040E1F700C00000DF91CF911F9171
:100750000C942403FC012081318144E6429FC001B6
:10076000439F900D1124428153816AE0649F900160
:10077000659F300D1124280F391F84819581820FC8
:10078000931F0895EF92FF921F93CF93DF937C0105
:1007900010E00E94E101C82FD0E02097D1F3123081
:1007A000E0F49091A001992319F0913019F48AE2B4
:1007B0000E94BE02F701E10FF11DE10FF11DE0976C
:1007C000D183C0831F5F2FE78AE196E021508040EC
:1007D0009040E1F700C00000DCCF1230D1F6E09786
:1007E000F701D583C4839091A001992319F091302A
:1007F00019F48AE20E94BE02FFE72AE186E0F15086
:1008000020408040E1F700C00000C701DF91CF9198
:100810001F91FF90EF900C94AA03EF92FF921F9309
:10082000CF93DF937C01C0E0D0E010E0CE010E94C6
:1008300088018E159F0509F411E02196C11581E00C
:10084000D807A1F7812FDF91CF911F91FF90EF90F3
:100850000895CF93DF93EC01CB01880F991F880F88
:10086000991F8E5891400E94880121E08C179D07A6
:1008700009F020E0822FDF91CF9108959B01220F94
:10088000331F220F331FBC01C9018E5891400C94B5
:100890005C01EF92FF920F931F93CF93DF9300D0F1
:1008A0001F92CDB7DEB70E94240388EC90E00E942F
:1008B000FD022FEF89E698E1215080409040E1F75A
:1008C00000C000000E94240384ED90E00E94FD021D
:1008D00060E081E00E941003CE0101960E94C203F5
:1008E0008C01FF24F394F092A00180916A00909112
:1008F0006B000817190709F087C00E94240383EED4
:1009000090E00E94FD0260E081E00E941003CE01B1
:1009100001960E94C2031092A001B8010E9429040E
:10092000882309F46CC00E94240382EF90E00E94A7
:10093000FD0260E081E00E941003CE0101960E945A
:10094000C2038C010E940D04882309F453C0F09265
:10095000A0010E9424038BEF90E00E94FD0260E062
:1009600081E00E941003CE0101960E94C203B801EB
:100970000E942904882371F10E94240388E091E0F9
:100980000E94FD0260E081E00E941003CE0101960A
:100990000E94C2037C010E94240385E191E00E9431
:1009A000FD0260E081E00E941003CE0101960E94EA
:1009B000C203E816F90649F4B801C7010E943E04D3
:1009C0000E94240383E291E009C00E9424038EE286
:1009D00091E01EC00E94240388E391E00E94FD0282
:1009E0002FEF89E698E1215080409040E1F700C068
:1009F00000001BC00E94240381E491E009C00E9412
:100A0000240388E391E004C00E9424038AE491E077
:100A10000E94FD022FEF89E698E12150804090402E
:100A2000E1F700C000000E9424030F900F900F9088
:100A3000DF91CF911F910F91FF90EF9008951F923A
:100A40000F920FB60F9211242F933F934F935F9302
:100A50006F937F938F939F93AF93BF93EF93FF9386
:100A60000E944904FF91EF91BF91AF919F918F91A7
:100A70007F916F915F914F913F912F910F900FBE9A
:100A80000F901F901895EF92FF920F931F93CF93A3
:100A9000DF9300D01F92CDB7DEB70E94240383E519
:100AA00091E00E94FD022FEF89E698E121508040FD
:100AB0009040E1F700C000000E9424038BE591E024
:100AC0000E94FD021092A00160E081E00E941003EC
:100AD000CE0101960E94C2038C01FF24F394F09290
:100AE000A0010E940D04882309F453C00E9424032E
:100AF00089E691E00E94FD0260E081E00E9410031F
:100B0000CE0101960E94C203F092A001B8010E949A
:100B100029048823C9F10E94240388E091E00E94FF
:100B2000FD0260E081E00E941003CE0101960E9468
:100B3000C2037C010E94240385E191E00E94FD0232
:100B400060E081E00E941003CE0101960E94C20382
:100B5000E816F906A1F4B801C7010E943E040E94FC
:100B6000240383E291E00E94FD022FEF89E698E1E1
:100B7000215080409040E1F700C000001BC00E945F
:100B800024038EE291E009C00E94240388E391E0EF
:100B900004C00E9424038AE491E00E94FD022FEF2A
:100BA00089E698E1215080409040E1F700C00000C4
:100BB0000E9424030F900F900F90DF91CF911F910F
:100BC0000F91FF90EF9008951F920F920FB60F9222
:100BD00011242F933F934F935F936F937F938F9342
:100BE0009F93AF93BF93EF93FF930E944305FF91B1
:100BF000EF91BF91AF919F918F917F916F915F9195
:100C00004F913F912F910F900FBE0F901F9018950D
:100C1000882321F0813039F441E001C040E061E0F7
:100C200083E00C94AE000895882339F0813039F4C4
:100C300041E065E083E00C94AE000C942703089536
:100C4000CF93DF9300D01F92CDB7DEB70E942C0365
:100C50008EE0D82E0E9424031092A00187E791E035
:100C60000E94FD020E94E1012FE73AE196E0215047
:100C700030409040E1F700C000008A3259F70E94EE
:100C800024038FE791E00E94FD0260E081E00E9472
:100C90001003CE0101960E94C2038C010E940D0434
:100CA00081112CC00E94240381E491E00E94FD0286
:100CB00081E00E9414062FEF39E688E12150304090
:100CC0008040E1F700C000000E9427039FEF29E663
:100CD00038E1915020403040E1F700C0000081E051
:100CE0000E9414068FEF99E628E181509040204041
:100CF000E1F700C000000E942703ACCFC8010E94AA
:100D00000D04F82E31E08313A5CF0E94240388E858
:100D100091E00E94FD0260E081E00E941003F092E9
:100D2000A001CE0101960E94C2037C01B8010E947D
:100D30002904813009F03FC00E9424031092A001D1
:100D4000E0E6F0E0E12CF12C828593850817190785
:100D500049F581E991E00E94FD0260E081E00E9496
:100D60001003DE9CC001DF9C900D1124805A9F4F20
:100D70000E94FD0281E00E9408068FEF91E12AE7C0
:100D8000815090402040E1F700C0000040E061E069
:100D900083E00E94AE000E94240389E991E00E9452
:100DA000FD0258CF3FEFE31AF30A3E9685E0E816BE
:100DB000F10451F64FCFB801C7010E9429048111F7
:100DC00049CF0E94240388E391E00E94FD0281E064
:100DD0000E9414069FEF29E638E1915020403040F0
:100DE000E1F700C000000E9427030E94240332CFD5
:040DF000F894FFCFA5
:100DF40050726F660000000000006F00CB00416875
:100E04006D656400000000007E008100416D720089
:100E1400000000000000800045014164656C000092
:100E2400000000008200AA014F6D61720000000002
:100E3400000084004F003132333435363738392AD4
:100E44003023496E697469616C697A696E672E2E04
:100E54002E0052656164790057656C636F6D65207F
:100E640053697200456E7465722041646D696E2029
:100E7400494400456E7465722041646D696E20506A
:100E84004300456E74657220494400456E74657272
:100E9400204F4C4420504300456E746572204E65CB
:100EA400772050430052656E746572204E6577203A
:100EB4005043005043206368616E676564004E6F61
:100EC40074206D617463680077726F6E672050439D
:100ED4000077726F6E672049440057726F6E672007
:100EE40049440057656C636F6D6500456E746572A7
:100EF40020796F757220494400456E7465722079BB
:100F04006F757220504300456E746572202A006527
:100F14006E74657220494400656E74657220504396
:100F24000077656C636F6D650070726573732A007A
:00000001FF
